:1000000006C100002EC100002CC100002AC1000062
:1000100028C1000026C1000024C1000022C1000048
:1000200020C100001EC100001CC100001AC1000058
:1000300018C1000016C1000014C1000012C1000068
:1000400010C100000EC100000CC100000AC1000078
:1000500008C1000006C1000004C10000D3C10000B7
:1000600000C10000B9C20000FBC30000FAC00000DC
:10007000F8C00000F6C00000F4C00000F2C00000AC
:10008000F0C00000EEC00000ECC00000EAC00000BC
:10009000E3C2000024C40000E4C00000E2C000008D
:1000A000E0C00000DEC00000DCC00000DAC00000DC
:1000B000D8C00000D6C00000D4C00000D2C00000EC
:1000C000D0C00000CEC00000CCC0000005C30000BE
:1000D00045C40000C6C000003FC300007EC400004D
:1000E000C0C0000000002100240027002A002D00CD
:1000F0003000330001010000040107010A01000083
:100100002200250028002B002E00310034000201BF
:100110000000050108010B0100002000230026005B
:1001200029002C002F00320000010000030106010D
:10013000090105050505070508080808020202026D
:100140000A0A080804040404010101010101010173
:100150000303030303030303040707070C0C0C0C3E
:100160000C0C0C0C02020202060606060606060627
:100170000B0B0B0B0B0B0B0B0102102020080810B4
:100180002040102040800201020108040201010207
:1001900004081020408080402010080402018004E0
:1001A000020180402010080402010804020101023B
:1001B0000408102040800102040810204080000044
:1001C000090A02080B0C0D070603040100000000D9
:1001D000000000000000000000000000000000001F
:1001E0000000000000000000000011100F000000DF
:1001F00000000000000000000000000000000000FF
:100200000000000073017801AF01B801D605112488
:100210001FBECFEFD1E2DEBFCDBF00E00CBF12E0CA
:10022000A0E0B2E0ECE2FFE000E00BBF02C007900C
:100230000D92AC38B107D9F71BBE15E0ACE8B2E0BF
:1002400001C01D92AE36B107E1F712E0CEE0D2E078
:1002500003C02297FE0164D6C430D107D1F7DCD5A4
:1002600063C6CECE86EB92E042C086EB92E03EC003
:10027000FC01862F6083718361E06EC1F9CF089520
:100280000F931F93182F092F8BEB92E060E270E021
:1002900040E050E193D0812F902FFC0121913191CA
:1002A000A9014E5F5F4F09C0F999FECF32BD21BD54
:1002B000F89A80B581932F5F3F4F24173507A1F738
:1002C0001F910F9108950F931F938C018BEB92E078
:1002D00062E070E054D0F80191838083C801D0DFE0
:1002E0001F910F9108958CE892E0EDCF0895089545
:1002F00080E992E066E370E0C1DF84E992E067E3C1
:1003000070E0BCDF88E992E068E370E0B7DF8CE979
:1003100092E069E370E0B2DF80EA92E06AE370E0C5
:10032000ADDF84EA92E06BE370E0A8DF88EA92E058
:100330006CE370E0A3DF8CEA92E06DE370E09EDF97
:1003400080EB92E06AE070E011D082EB92E06BE02B
:1003500070E00CD084EB92E06CE070E007C0089590
:10036000FC01862F6083718361E0F6C0F9CF0895A8
:1003700084E690E09093BC028093BB020895CF93F3
:10038000DF93C091B902D091BA026C0F7D1F7093B8
:10039000BA026093B90280917A0290917B0286172B
:1003A000970744F486EE94E060E072E0A6D5D0951D
:1003B000C195DF4FCE01DF91CF9108952091B90211
:1003C0003091BA028091B7029091B802281739078C
:1003D00021F47093B8026093B7028091B7029091B4
:1003E000B8029093BA028093B902481759072CF0CB
:1003F00050937B0240937A02089586EE94E06CE479
:1004000072E07BC51F920F920FB60F9211242F93AB
:100410003F938F939F93AF93BF938091C10290912D
:10042000C202A091C302B091C4023091C5020196EC
:10043000A11DB11D232F2D5F2D3720F02D570196C3
:10044000A11DB11D2093C5028093C1029093C202E9
:10045000A093C302B093C4028091BD029091BE02EA
:10046000A091BF02B091C0020196A11DB11D809361
:10047000BD029093BE02A093BF02B093C002BF9191
:10048000AF919F918F913F912F910F900FBE0F9041
:100490001F901895789484B5826084BD84B581607E
:1004A00084BD85B5826085BD85B5816085BDEEE67C
:1004B000F0E0808181608083E1E8F0E0108280815B
:1004C00082608083808181608083E0E8F0E08081C9
:1004D00081608083E1EBF0E0808184608083E0EBE9
:1004E000F0E0808181608083E1E9F0E080818260DA
:1004F0008083808181608083E0E9F0E08081816099
:100500008083E1EAF0E08081826080838081816085
:100510008083E0EAF0E0808181608083E1E2F1E0C5
:10052000808182608083808181608083E0E2F1E06D
:10053000808181608083EAE7F0E08081846080834D
:1005400080818260808380818160808380818068F7
:1005500080831092C1000895CF93DF93482F50E01D
:10056000CA0188589E4FFC0134914E5C5E4FFA01DF
:100570008491882369F190E0880F991FFC01EC5168
:10058000FF4FA591B491FC01E250FF4FC591D4916A
:10059000662351F42FB7F8948C91932F909589236B
:1005A0008C93888189230BC0623061F42FB7F89453
:1005B0008C91932F909589238C938881832B8883AA
:1005C0002FBF06C09FB7F8948C91832B8C939FBF4D
:1005D000DF91CF91089508951F920F920FB60F9259
:1005E0000BB60F9211242F933F934F938F939F93AA
:1005F000EF93FF938091C00082FD1DC04091C60023
:1006000020910603309107032F5F3F4F2F73307007
:1006100080910803909109032817390771F0E09140
:100620000603F0910703EA53FD4F4083309307031D
:100630002093060302C08091C600FF91EF919F9125
:100640008F914F913F912F910F900BBE0F900FBE46
:100650000F901F90189508951F920F920FB60F924A
:100660000BB60F9211242F933F934F938F939F9329
:10067000EF93FF938091C80082FD1DC04091CE0092
:1006800020918E0330918F032F5F3F4F2F73307077
:1006900080919003909191032817390771F0E091B0
:1006A0008E03F0918F03E25BFC4F408330938F0306
:1006B00020938E0302C08091CE00FF91EF919F9115
:1006C0008F914F913F912F910F900BBE0F900FBEC6
:1006D0000F901F90189508951F920F920FB60F92CA
:1006E0000BB60F9211242F933F934F938F939F93A9
:1006F000EF93FF938091D00082FD1DC04091D60002
:1007000020911604309117042F5F3F4F2F733070E4
:1007100080911804909119042817390771F0E0911D
:100720001604F0911704EA52FC4F408330931704EB
:100730002093160402C08091D600FF91EF919F9103
:100740008F914F913F912F910F900BBE0F900FBE45
:100750000F901F90189508951F920F920FB60F9249
:100760000BB60F9211242F933F934F938F939F9328
:10077000EF93FF938091300182FD1DC040913601BF
:1007800020919E0430919F042F5F3F4F2F73307054
:100790008091A0049091A1042817390771F0E0918D
:1007A0009E04F0919F04E25AFB4F408330939F04D4
:1007B00020939E0402C080913601FF91EF919F919A
:1007C0008F914F913F912F910F900BBE0F900FBEC5
:1007D0000F901F901895E091F204F091F304E05C03
:1007E000FF4F8191919120813181821B930B8F73F7
:1007F0009070892B09F0EFDEE0911405F09115055A
:10080000E05CFF4F8191919120813181821B930B9C
:100810008F739070892B09F01EDFE0913605F091FF
:100820003705E05CFF4F8191919120813181821BDE
:10083000930B8F739070892B09F04DDFE091580571
:10084000F0915905E05CFF4F8191919120813181B8
:10085000821B930B8F739070892B09F07CCF0895C6
:100860001F920F920FB60F920BB60F9211242F9377
:100870003F938F939F93EF93FF9320914A0330917F
:100880004B0380914C0390914D032817390731F4A5
:100890008091C1008F7D8093C10014C0E0914C0312
:1008A000F0914D03E65FFC4F208180914C039091C5
:1008B0004D0301968F73907090934D0380934C037A
:1008C0002093C600FF91EF919F918F913F912F91BF
:1008D0000F900BBE0F900FBE0F901F9018951F9298
:1008E0000F920FB60F920BB60F9211242F933F93D6
:1008F0008F939F93EF93FF932091D2033091D30373
:100900008091D4039091D5032817390731F4809151
:10091000C9008F7D8093C90014C0E091D403F09189
:10092000D503EE56FC4F20818091D4039091D503DE
:1009300001968F7390709093D5038093D403209386
:10094000CE00FF91EF919F918F913F912F910F904A
:100950000BBE0F900FBE0F901F9018951F920F9215
:100960000FB60F920BB60F9211242F933F938F93D4
:100970009F93EF93FF9320915A0430915B048091F1
:100980005C0490915D042817390731F48091D100FF
:100990008F7D8093D10014C0E0915C04F0915D04E0
:1009A000E65EFB4F208180915C0490915D0401968E
:1009B0008F73907090935D0480935C042093D600B5
:1009C000FF91EF919F918F913F912F910F900BBECF
:1009D0000F900FBE0F901F9018951F920F920FB699
:1009E0000F920BB60F9211242F933F938F939F93E7
:1009F000EF93FF932091E2043091E3048091E404AB
:100A00009091E5042817390731F4809131018F7DE9
:100A10008093310114C0E091E404F091E504EE55B7
:100A2000FB4F20818091E4049091E50401968F733F
:100A300090709093E5048093E40420933601FF9135
:100A4000EF919F918F913F912F910F900BBE0F903F
:100A50000FBE0F901F901895DC011C96ED91FC9134
:100A60001D97E05CFF4F2191319180819181281B7E
:100A7000390B2F733070C9010895DC011C96ED917C
:100A8000FC911D97E05CFF4F20813181E054F040E4
:100A9000DF01AE5BBF4F8D919C91119728173907ED
:100AA00019F42FEF3FEF07C08D919C91E80FF91FCC
:100AB0008081282F30E0C9010895DC011C96ED915A
:100AC000FC911D97E05CFF4F20813181E054F040A4
:100AD000DF01AE5BBF4F8D919C91119728173907AD
:100AE00019F42FEF3FEF10C08D919C911197E80FF3
:100AF000F91F20818D919C91119701968F739070B1
:100B000011969C938E9330E0C9010895DC01919673
:100B10008C919197882339F05496ED91FC915597DB
:100B2000808186FFF9CF91961C920895CF93DF9331
:100B3000EC01EE85FF85E05CFF4F20813181E054C0
:100B4000F0402F5F3F4F2F733070DF01AE5BBF4F20
:100B50008D919C91119728173907D1F3E05CFF4FD5
:100B600080819181E054F040E80FF91F6083EE85A9
:100B7000FF85E05CFF4F31832083EE89FF89208170
:100B800081E090E00F8C02C0880F991F0A94E2F771
:100B9000282B208381E089A3EC89FD8980818064F2
:100BA000808381E090E0DF91CF9108951F931092B0
:100BB000E9041092E80428EE33E040E050E020938E
:100BC000EA043093EB044093EC045093ED0460E8A6
:100BD00072E07093E7046093E60486EC92E09093F1
:100BE000F3048093F2048AE093E09093F5048093F9
:100BF000F40485EC90E09093F7048093F60484EC81
:100C000090E09093F9048093F80480EC90E0909346
:100C1000FB048093FA0481EC90E09093FD048093B0
:100C2000FC0482EC90E09093FF048093FE0486EC39
:100C300090E0909301058093000514E01093020565
:100C4000B3E0B0930305A7E0A0930405F5E0F093AB
:100C50000505E1E0E093060510920B0510920A05E8
:100C600020930C0530930D0540930E0550930F050E
:100C700070930905609308058EE493E09093150541
:100C80008093140582E993E09093170580931605ED
:100C90008DEC90E090931905809318058CEC90E012
:100CA00090931B0580931A0588EC90E090931D05A6
:100CB00080931C0589EC90E090931F0580931E059E
:100CC0008AEC90E090932105809320058EEC90E0D3
:100CD000909323058093220510932405B093250556
:100CE000A0932605F0932705E093280510922D0583
:100CF00010922C0520932E0530932F05409330053C
:100D00005093310570932B0560932A0586ED93E08F
:100D100090933705809336058AE194E090933905E6
:100D20008093380585ED90E090933B0580933A05DC
:100D300084ED90E090933D0580933C0580ED90E03C
:100D400090933F0580933E0581ED90E0909341059F
:100D50008093400582ED90E0909343058093420597
:100D600086ED90E0909345058093440510934605E9
:100D7000B0934705A0934805F0934905E0934A05D1
:100D800010924F0510924E05209350053093510557
:100D9000409352055093530570934D0560934C0555
:100DA0008EE594E0909359058093580582EA94E08B
:100DB00090935B0580935A0585E391E090935D05E0
:100DC00080935C0584E391E090935F0580935E05DA
:100DD00080E391E0909361058093600581E391E069
:100DE000909363058093620582E391E0909365059B
:100DF0008093640586E391E0909367058093660590
:100E000010936805B0936905A0936A05F0936B058C
:100E1000E0936C051F910895CF93DF933BDB25DAB8
:100E2000CBEED3E01FDA2097E9F3D5DCFBCFCF92EE
:100E3000DF92EF92FF920F931F93CF93DF937C018A
:100E40006B018A01C0E0D0E00FC0D6016D916D0149
:100E5000D701ED91FC910190F081E02DC70119952A
:100E6000C80FD91F015010400115110571F7CE01AF
:100E7000DF91CF911F910F91FF90EF90DF90CF9076
:100E80000895EF92FF920F931F938C01DC01ED9177
:100E9000FC910190F081E02D6DE019957C01D80165
:100EA000ED91FC910190F081E02DC8016AE0199567
:100EB0009C012E0D3F1DC9011F910F91FF90EF90D6
:100EC0000895CF93DF93EC016115710519F420E0CB
:100ED00030E00FC0DB010D900020E9F71197A61B51
:100EE000B70BE881F9810280F381E02DAD011995FE
:100EF0009C01C901DF91CF910895EF92FF920F936A
:100F00001F937C01DEDF8C01C701BBDF080F191FB7
:100F1000C8011F910F91FF90EF900895EE0FFF1FF2
:0C0F20000590F491E02D1994F894FFCF97
:100F2C00417474656D707420746F20777269746588
:100F3C00206F757473696465206F66204545505247
:100F4C004F4D206D656D6F727900457863656564F2
:100F5C006564206D6178696D756D206E756D626567
:100F6C0072206F66207772697465730043616E6ED0
:100F7C006F74206368616E6765206365696C696E68
:100F8C00672C2062656C6F772069737375656420BC
:100F9C006164647265737365730000020000000085
:0C0FAC00960517072C055D053D05860520
:00000001FF
